:020000040800F2
:10000000B8080020CD010008D1010008D301000884
:10001000D5010008D7010008D90100080000000040
:10002000000000000000000000000000DB010008EC
:10003000DD01000800000000DF010008E101000808
:10004000E3010008E3010008E3010008E301000800
:10005000E3010008E3010008E3010008E3010008F0
:10006000E3010008E3010008E3010008E3010008E0
:10007000E3010008E3010008E3010008E3010008D0
:10008000E3010008E3010008E3010008E3010008C0
:10009000E3010008E3010008E3010008E3010008B0
:1000A000E3010008E3010008E3010008E3010008A0
:1000B000E3010008B50F0008E3010008E3010008B0
:1000C000E3010008E3010008E3010008E301000880
:1000D000E30100086D100008E3010008E3010008D7
:1000E000E3010008E3010008E3010008E301000860
:1000F000E3010008E3010008E3010008E301000850
:10010000E3010008E3010008E3010008E30100083F
:10011000E3010008E3010008E3010008E30100082F
:10012000E3010008E3010008E3010008E30100081F
:1001300000F002F800F03AF80AA090E8000C8244BF
:100140008344AAF10107DA4501D100F02FF8AFF29C
:10015000090EBAE80F0013F0010F18BFFB1A43F0A5
:1001600001031847201F0000401F0000103A24BF61
:1001700078C878C1FAD8520724BF30C830C144BF0C
:1001800004680C607047000000230024002500264E
:10019000103A28BF78C1FBD8520728BF30C148BFEA
:1001A0000B6070471FB51FBD10B510BD00F092F871
:1001B0001146FFF7F7FF01F031F900F0C4F803B47E
:1001C000FFF7F2FF03BC01F039F8000008480047D0
:1001D000FEE7FEE7FEE7FEE7FEE7FEE7FEE7FEE7F7
:1001E000FEE7FEE703480449044A054B7047000058
:1001F00031010008B8020020B8080020B80400202F
:10020000B8040020704700000FB4044910B503AAD9
:10021000029800F031F810BC5DF814FB18000020C3
:100220004FF0000200B5134694469646203922BF8F
:10023000A0E80C50A0E80C50B1F12001BFF4F7AFDA
:10024000090728BFA0E80C5048BF0CC05DF804EBBC
:10025000890028BF40F8042B08BF704748BF20F82A
:10026000022B11F0804F18BF00F8012B7047704728
:100270007047704770470000074B70B50D467B44D0
:1002800000F011F80446284600F020F810B14FF0B5
:10029000FF3070BD204670BD3F10000001694A1C50
:1002A00002610878704700B58FB0CDE901310021B7
:1002B000059105497944CDE903101146684600F0DF
:1002C0002EF80FB000BD0000E5FFFFFF007B00F03F
:1002D00080007047754600F03DF8AE46050069465F
:1002E000534620F00700854618B020B5FFF77AFF87
:1002F000BDE820404FF000064FF000074FF0000827
:100300004FF0000B21F00701AC46ACE8C009ACE8A7
:10031000C009ACE8C009ACE8C0098D4670472DE9BA
:10032000F04106460024D6E90170F5688046304663
:1003300003E04146B847641C3046A8470028F8D17E
:100340002046BDE8F0810446AFF300802046FFF769
:1003500036FF000000487047540200202DE9F04F9E
:1003600087B004460D4616461F464FF0000BDA468E
:1003700000200590049032463B462046294600F076
:100380005DFBF849D1E9060181F00041CDE90001AA
:10039000F548D0E902834246009801F0D1FACDE950
:1003A000020101F05DFA8346EE49D1E9080181F0CE
:1003B0000041CDE90001EC48D0E9028342460098B3
:1003C00001F0BEFACDE9020101F04AFA8246E7489F
:1003D000406858440590E54880685044049005986A
:1003E0000BFB00F0002804DB04980AFB00F0002857
:1003F00009DA32463B462046294600F0DDFB002064
:1004000007B0BDE8F08FD94A5168002901DB0A46E0
:1004100000E04A42D54B9868002801DB034600E023
:1004200043421A44D14B1A6000201946C86008465E
:10043000407C012874D1BBF1000F73D1BAF1000FD9
:1004400003D1CBA0FFF7E0FEEBE2BAF1000F27DD0E
:1004500021E0C648C06800280CDB00F09DFEC348C0
:10046000C068022101FB1A00401CC049C860AAF103
:10047000010A0BE000F066FEBC48C068022101FBE7
:100480000B00401CB949C8600BF1010BB74800686C
:10049000401EB6490860B54800680028D9D1C0E2BE
:1004A00039E0B248C068002818DB00F09DFEBAF1C0
:1004B000000001DB014600E04142AC4AD268022361
:1004C00003FB1121491CA94AD160BAF1000001DBEC
:1004D000014600E04142A1F1010A17E000F008FEE8
:1004E000BBF1000001DB014600E041429F4AD268B7
:1004F000022303FB0121491C9C4AD160BBF100008F
:1005000001DB014600E0414201F1010B9748006820
:10051000401E96490860954800680028C1D180E2D5
:10052000F1E0FFE7BBF1000F6ADDBAF1000F3FDC3D
:1005300039E08E48C068002818DB00F0D9FDBBF117
:10054000000001DB014600E04142884AD2680223F4
:1005500003FB1121491C854AD160BBF1000001DB7E
:10056000014600E04142A1F1010B17E000F014FE4A
:10057000BAF1000001DB014600E041427B4AD2684B
:10058000022303FB0121491C784AD160BAF1000023
:1005900001DB014600E0414201F1010A73480068B5
:1005A000401E72490860714800680028C1D138E2D5
:1005B00021E06E48C06800280CDB00F0EDFD6B48C0
:1005C000C068022101FB1A00401C6849C860AAF1FA
:1005D000010A0BE000F0B6FD6448C068022101FB8F
:1005E0000B00401C6149C8600BF1010B5F480068BB
:1005F000401E5E4908605D4800680028D9D110E2BD
:10060000BAF1000F3FDB39E05848C068002818DB1A
:1006100000F098FDBBF1000001DB014600E0414223
:10062000524AD268022303FB1121491C4F4AD16070
:10063000BBF1000001DB014600E04142A1F1010BEA
:1006400017E000F0D1FDBAF1000001DB014600E047
:100650004142464AD268022303FB0121491C434A16
:10066000D160BAF1000001DB014600E0414201F136
:10067000010A3E480068401E3C4908603B4800684B
:100680000028C1D1CDE139E03848C068002818DB26
:1006900000F0AAFDBAF1000001DB014600E0414292
:1006A000324AD268022303FB1121491C2F4AD16030
:1006B000BAF1000001DB014600E04142A1F1010A6C
:1006C00017E000F015FDBBF1000001DB014600E082
:1006D0004142264AD268022303FB0121491C234AD6
:1006E000D160BBF1000001DB014600E0414201F1B5
:1006F000010B1E480068401E1C4908601B4800682A
:100700000028C1D18DE11948407C0228BAD1BBF143
:10071000000F6FD1BAF1000F03D115A0FFF774FDE0
:100720007FE1BAF1000F4BDD45E01048C0680028BA
:1007300024DB00F031FDBAF1000001DB014600E0EE
:1007400041420A4AD268022303FB1121491C074A8D
:10075000D160BAF1000001DB014600E04142A1F1A5
:10076000010A23E020000020480000207C00002037
:100770000D0AD7D6B3F6B4ED0D0A000000F0B8FCB0
:10078000BBF1000001DB014600E04142A64AD2680D
:10079000022303FB0121491CA34AD160BBF10000E5
:1007A00001DB014600E0414201F1010B9E48006877
:1007B000401E9D4908609C4800680028B5D130E182
:1007C0003AE09948C068002819DB00F00DFDBAF145
:1007D000000001DB014600E04142934AD268022357
:1007E00003FB1121491C904AD160BAF1000002DBE1
:1007F000014601E025E04142A1F1010A17E000F0C5
:10080000A1FCBBF1000001DB014600E04142864A49
:10081000D268022303FB0121491C834AD160BBF14A
:10082000000001DB014600E0414201F1010B7E487E
:100830000068401E7C4908607B4800680028C0D1E1
:10084000EFE0BBF1000F6ADDBAF1000F27DB21E01A
:100850007548C06800280CDB00F04AFC7248C0688C
:10086000022101FB1B00401C6F49C860ABF1010B6A
:100870000BE000F0B9FC6C48C068022101FB0A00E3
:10088000401C6949C8600AF1010A67480068401EB7
:1008900065490860644800680028D9D1C1E039E0A2
:1008A0006148C068002818DB00F09EFCBAF1000027
:1008B00001DB014600E041425B4AD268022303FBB0
:1008C0001121491C584AD160BAF1000001DB0146F0
:1008D00000E04142A1F1010A17E000F033FCBBF156
:1008E000000001DB014600E041424F4AD26802238A
:1008F00003FB0121491C4C4AD160BBF1000001DB24
:10090000014600E0414201F1010B47480068401EEA
:1009100045490860444800680028C1D181E0BAF127
:10092000000F3FDC39E04048C068002818DB00F0C9
:1009300009FCBBF1000001DB014600E041423A4AFC
:10094000D268022303FB1121491C374AD160BBF155
:10095000000001DB014600E04142A1F1010B17E07C
:1009600000F01AFCBAF1000001DB014600E0414250
:100970002D4AD268022303FB0121491C2A4AD16077
:10098000BAF1000001DB014600E0414201F1010A39
:1009900025480068401E2449086023480068002854
:1009A000C1D13EE039E02048C068002818DB00F0E3
:1009B000F3FBBAF1000001DB014600E041421A4AB4
:1009C000D268022303FB1121491C174AD160BAF1F6
:1009D000000001DB014600E04142A1F1010A17E0FD
:1009E00000F086FBBBF1000001DB014600E0414264
:1009F0000D4AD268022303FB0121491C0A4AD16037
:100A0000BBF1000001DB014600E0414201F1010BB6
:100A100005480068401E0449086003480068002833
:100A2000C1D10020ECE400007C0000200146024817
:100A300041740020704700007C0000202DE9F05F29
:100A400004460D4616461F461049D1E90283424628
:100A50002046294600F074FF824600F001FF0C4951
:100A60000968401A0B4948600848D0E902834246A9
:100A70003046394600F064FF824600F0F1FE04493A
:100A80004968401A03498860BDE8F09F480000208B
:100A9000000000207C0000202DE9FF41294800785B
:100AA00030B101280ED0022817D0032844D12CE001
:100AB0002448D0E904432246D0E90261304600F0E0
:100AC0007BF83AE01F490846D1E904432246D0E9C1
:100AD0000261304600F070F82FE00120FFF7A6FF1A
:100AE0001848416A006ACDE902011648C169806967
:100AF000CDE9000113480146D0E90443D1E9026180
:100B000022463046FFF72AFC17E00220FFF78EFF4F
:100B10000C48416A006ACDE902010A48C16980694E
:100B2000CDE900010749D1E90443D1E90261224638
:100B30003046FFF713FC00E000BF00BF002004B008
:100B4000BDE8F081200000201848806940F00400D2
:100B5000164988610846806940F020008861144881
:100B6000006820F00F00124908600846006840F055
:100B7000030008600E480830006840F480700C499B
:100B8000083108600B48006820F47060094908606B
:100B90000846006840F44070086006480C30006861
:100BA00040F0040003490C31086070470010024017
:100BB00004080140001401402DE9F04104460D46AF
:100BC00016461F4632463B462046294600F0EEF8C0
:100BD00000F0CEF8654A5168002901DB0A4600E0C2
:100BE0004A42624B9868002801DB034600E043421A
:100BF0001A445E4B1A6000201946C8600846007C03
:100C0000012821D11BE05948C068002809DB00F009
:100C100099FA5648C06855498968401A5349C860CE
:100C200008E000F0E1FA5148C068504949680844BA
:100C30004E49C8604D480068401E4C4908604B480A
:100C400000680028DFD18EE04848007C02282BD1C4
:100C500025E04648C06800280EDB00F049FA434909
:100C60008868002801DB014600E041423F4AD26823
:100C7000511A3E4AD1600DE000F0B6FA3B4948688F
:100C8000002801DB014600E04142384AD2681144A5
:100C9000364AD16035480068401E34490860334800
:100CA00000680028D5D15EE03048007C03282BD1B5
:100CB00025E02E48C06800280EDB00F019FA2B4909
:100CC0008868002801DB014600E04142274AD268DB
:100CD000511A264AD1600DE000F05EFA23494868B7
:100CE000002801DB014600E04142204AD26811445D
:100CF0001E4AD1601D480068401E1C4908601B4800
:100D000000680028D5D12EE01848007C04282AD19C
:100D100025E01648C06800280EDB00F013FA1349DE
:100D20008868002801DB014600E041420F4AD26892
:100D3000511A0E4AD1600DE000F02EFA0B494868B6
:100D4000002801DB014600E04142084AD268114414
:100D5000064AD16005480068401E044908600348FF
:100D600000680028D5D10020BDE8F081680000208F
:100D70000D48406800280BDB0B488068002803DB27
:100D80000120094908740EE00420074908740AE0AC
:100D900005488068002803DB02200349087402E04C
:100DA0000320014908747047680000202DE9F05FB6
:100DB00004460D4616461F461049D1E902834246B5
:100DC0002046294600F0BCFD824600F049FD0C4952
:100DD0000968401A0B4948600848D0E90283424636
:100DE0003046394600F0ACFD824600F039FD04493A
:100DF0004968401A03498860BDE8F09F4800002018
:100E0000000000206800002000B50020154908619E
:100E1000C8601420486100208861C86108460068E5
:100E200040F001000860084640680F4908400D493D
:100E30004860084600680D4908400A4908600846AD
:100E4000006820F4802008600846406820F4FE0016
:100E500048600020886000214FF0006000F058F8E2
:100E600000BD0000001002400000FFF8FFFFF6FE8A
:100E70002DE9F0410746884614461D46284600F0F5
:100E800033F8C5F1040007FA00F60F20284100EA04
:100E90000800064306F00F06E21704EBD262521177
:100EA000920002F1E022D2F800212146E31704EB80
:100EB000D3635B11A4EB431C012303FA0CF31A4325
:100EC0002046E31704EBD3635B119B0003F1E0239F
:100ED000C3F800210348005D40EA061001490855A7
:100EE000BDE8F08100E400E00146072323EA0102A7
:100EF0001202054B18684FF6FF031840034B1843C6
:100F00001043014B186070470CED00E00000FA053B
:100F1000024A0A400243024B1A60704780FFFF1FDB
:100F200008ED00E030B504460025FFF76DFF1F48CF
:100F3000006840F480301D49086000BF1B4800680D
:100F4000400C0028FAD04FF4806018494860A01E79
:100F5000C4B20846406840EA844048600846406899
:100F600040F4803048601248006840F03200104978
:100F700008600E48006840F080700C49086000BFAF
:100F80000A480068400E0028FAD00848406840F03F
:100F900002000649486005E004484068C0F3870540
:100FA00005F00305022DF7D130BD0000001002400E
:100FB0000020024010B51448008800F00100E0B1A4
:100FC00012480078012807D11149086000F05AF949
:100FD00000201049C1F88C010C480078022809D182
:100FE00001200B49091D086000F04CF90020094957
:100FF000C1F890010020084908700348008820F0DB
:1010000001000149088010BD1004004010000020BC
:101010008C012142000021421100002070B50546DC
:101020000C461048C06940F002000E49C8610E48E5
:101030000580001F04800C482038008840F0010023
:1010400009492039088008482C38008840F0010000
:1010500005492C39088002231D2203210020FFF7B7
:1010600007FF70BD001002402C0400401D49098894
:1010700001F0200111B31B49091D0988C8B21A49A2
:10108000098801F40041C9B91749098801F4804170
:1010900061B10A2803D00021134A118020E01249CF
:1010A000098841F40041104A118019E00D2806D149
:1010B0000D49098841F480410B4A118010E00A492A
:1010C0000988C1F30D01094A505407490988491C90
:1010D000054A118011460988C72901DD00211180C8
:1010E00070470000003801401C0000208A010020E9
:1010F00002200F49087000200E49086001200E49A7
:1011000008700E48008840F001000C49088000BFBC
:10111000094800780128FBD00848008800F0FE004C
:101120000649088006480068401E05490860704767
:10113000100000208801214211000020000400401E
:101140000000002002200F49087001200E490860AD
:101150000E4908700E48008840F001000C490880D4
:1011600000BF0A4800780128FBD00948008800F039
:10117000FE000749088007480068401C05490860D0
:10118000704700001000002088012142110000205B
:10119000000400400000002001200E4908700E49A4
:1011A00008600E4908700E48008840F001000C49A4
:1011B000088000BF094800780128FBD00848008853
:1011C00000F0FE000649088006484068401E0549B8
:1011D0004860704710000020940121421100002057
:1011E000000400400000002001200F49087000208A
:1011F0000E49086001200E4908700E48008840F032
:1012000001000C49088000BF094800780128FBD084
:101210000848008800F0FE0006490880064840683B
:10122000401C05494860704710000020940121428D
:10123000110000200004004000000020014600BF13
:10124000704700004FF0E021096921F004014FF0E0
:10125000E0221161C21700EB5272C2F3C702074BC2
:101260001A701946097801EB4102C2EBC1114FF621
:10127000FF7202EAC101024A118070471200002089
:101280001400002001460D4A12784A434FF0E02333
:101290005A6100229A6101221A6100BF4FF0E022D8
:1012A000106900F001021AB100F48032002AF5D072
:1012B00000224FF0E0231A619A617047120000206B
:1012C00000BF054A128802F04002002AF9D0C2B2DB
:1012D000014B1B1D1A807047003801407FB5044642
:1012E0000020019089E09DF80400265C9DF8040030
:1012F000401CC0B2019002AA01A9204600F03EF9AC
:10130000DDE9020100F0DCFAC5B24A2E6CD006DC41
:10131000462E70D0472E09D0492E6DD15EE04D2E5D
:101320003ED0582E4ED0592E66D151E0032D17D005
:1013300005DC4DB1012D0BD0022D2FD10CE01E2D5F
:101340001CD04B2D2AD10FE000203049087025E039
:1013500001202E49087021E002202C4908701DE070
:1013600003202A49087019E0042028490870002148
:10137000264A9160D160116151610FE0002024493B
:10138000086048602349486088600860C8600021A0
:101390001E4A9160D1601161516100BF00BF2BE016
:1013A0000A201A490870032D02D0052D08D103E048
:1013B00001201949086003E000201749086000BFB8
:1013C00000BF19E0114ADDE90210C2E9021013E082
:1013D0000E4ADDE90210C2E904100DE00B4ADDE916
:1013E0000210C2E9061007E0084ADDE90210C2E96E
:1013F000081001E0FFE700BF00BF9DF80400205C7B
:1014000000287FF470AF04B070BD00002000002001
:101410000000002068000020980121420920FFF709
:1014200081FD4820FFF70EFF4FF41651482000F0D1
:101430005DF940F6C3103A490880232048803949B5
:101440003948374AC2E9021038483949C2E904012B
:101450001920114608760020364908700A46906027
:10146000D0600021116151619161D16111625162BD
:1014700000F01AF9FFF768FB294A528891B2284A0E
:101480001088FFF7CBFD2CA0FEF7BEFE46E02E48ED
:10149000008800F40040002840D000202B4908605C
:1014A00029480578002405E02948005D29490855A8
:1014B000601CC4B2AC42F7DB0020234908802548F9
:1014C000007838B323480078242806D122A0FEF7FC
:1014D0009BFE26A0FEF798FE1CE01E4800785228CE
:1014E00010D100BFBFF34F8F2248006800F4E060C6
:1014F00021490843001D1F490860BFF34F8F00BFFB
:1015000000BFFEE71348FFF7E9FEFFF7C5FA17A093
:10151000FEF77AFEFA210F48FEF782FEB7E70000D9
:1015200048000020B4C876BE9FAA5A409A9999995B
:101530009999B93F20000020D5D4C8D5CCECD2BBB6
:10154000BAC5BBFA0D0A00001C000020A001214210
:101550008A010020900000200D0AA1B024A1B1B0A2
:10156000EFD6FAD0C5CFA20D0A0D0A006F6B0D0A97
:10157000000000000CED00E00000FA052DE9FF5F1F
:1015800081468A46934600200390002702900190EE
:1015900000909AF8000000EB090616F8018BB8F1EC
:1015A0002D0F04D10120019016F8018B04E0B8F151
:1015B0002B0F01D116F8018B20E0A8F1300000F0CC
:1015C000FF08B8F1090F0EDC0298401CC0B202906F
:1015D000009808B1781E47B2039800EB800008EB32
:1015E0004000039008E0B8F1FE0F04D1009810B954
:1015F0000120009000E002E016F8018BDDE700BF5B
:10160000029818B9002004B0BDE8F09F039800F0DC
:1016100084F904460D46002213462046294600F070
:10162000E3F827D009E01B4A1B4B2046294600F06F
:1016300087F904460D46B81C47B217F1020FF2DDD8
:10164000002F08DA154A164B2046294600F078F993
:1016500004460D460EE0002F0CDD00BF0022114BAA
:101660002046294600F06CF904460D46781E40B22B
:10167000071EF3DC019820B185F00040CBE9004063
:1016800001E0CBE90045A6EB0900401E8AF8000006
:101690000120B8E77B14AE47E17A843F9A99999983
:1016A0009999B93F000024400B48806940F004003C
:1016B0000949886109480068C0B2084908600846BD
:1016C000006807490843054908600020054908608B
:1016D0000549C1F88C017047001002400008014024
:1016E0000033333390012142000021422DE9F05FA5
:1016F00005460E46300100F065FB8146304905FB8A
:1017000001F000F05FFB8246494600F079FA074697
:10171000384600F037FB84B2204600F053FB834686
:10172000394600F02FFC82464FF0834100F05EFB0B
:10173000814600F027FB80464FF6FF7000EA041454
:1017400004EB080084B21F48806940F004001D4982
:1017500088610846806940F4804088611A480068C2
:1017600020F47F60184908600846006840F40B6068
:1017700008601448C06840F480401249C8600846B8
:10178000C06820F48040C86010480480001D0088B4
:1017900042F20C0108430D49091D088008460088E3
:1017A00040F4807008800846008840F020000880DF
:1017B0000223252203210846FFF75AFBBDE8F09FCC
:1017C00040420F0000100240040801400838014068
:1017D000491058BFC1F140415B1058BFC3F14043AD
:1017E0008B42EFF30080704751EA030C17D41CF5CD
:1017F000801F58BFBCF5801F00F10680994218BFBA
:10180000704708BF9042704707D711F5801F58BF37
:1018100013F5801F19D499427047894270471CF50F
:10182000801F08D5BCF5801FF7D58B4218BF7047C5
:1018300008BF824270474FF4001C1CEB410F38BFB9
:101840001CEB430F01D28B42704770B500F022F9B8
:10185000922449004FF000514FF08053FFF7B8BF7A
:101860004FEA41034FEA5353A3F58063D3F11E03BC
:10187000C8BFD3F1210C0CDD4FF0004242EAC12277
:1018800042EA505232FA03FC8CEAE17CACEBE170A4
:101890007047102BC4BF0020704703F5787CBCF163
:1018A000FF3F04D06FF0004282EA2100704770B51C
:1018B00000F0F0F84992248000207047F2E7000021
:1018C0004FEA1153A3F58063D3F11E03A8BFD3F1F0
:1018D000200C08DB4FF0004242EAC12252EA50528B
:1018E00032FA03F0704709420BD4102BC4BF00201A
:1018F000704703F5787CBCF1FF3F05D04FF0FF3017
:1019000070474FF00000704770B500F0C3F800BF9B
:101910004992248000207047F0E7B0FA80F310FA73
:1019200003F10AD0C3F11D0303F580634FEA415070
:101930004FEA035202EBD12170474FF0000070478D
:10194000DFF848C170B51CEA111E1EBF1CEA131552
:101950009EEA0C0F95EA0C0F00F06F8081EA0304F9
:1019600023EA4C134EEAD47E21EA4C1141F4801153
:1019700043F48013AE44A1FB024CA0FB0365AEF11F
:101980007F7E361955EB0C05A1FB034C4CF100038F
:10199000A0FB021C16EB0C06654153F10003094243
:1019A00018BF46F0010613F4007F0BD14FEA033154
:1019B0004FEA0530340341EA155140EA16506FF002
:1019C00003020AE04FEAC3214FEAC520F40241EACC
:1019D000555140EA56506FF0020202EB2E4201EBE5
:1019E000025585EACE710AD05FEA440C18BF24F094
:1019F000004450F1000041F1000120EAD47040F2AF
:101A0000FE7C624500D270BDA84214BF4FF08044F6
:101A10004FF04044002E08BF0024BEF1806FA8BFE5
:101A2000A1F1C041BDE8704080F282804FF000001B
:101A300001F1C04101F0004170479EEA0C0F0CEA31
:101A4000131518BF95EA0C0F06D04FF0000081EA7D
:101A5000030E0EF0004170BD00F01CF88900013E3D
:101A600000F007B800F009B84FEA430C5FEA5C5C8D
:101A700008D081EA030100F05BB84FEA410C5FEA4D
:101A80005C5CF6D14FF00000014970470000FF0791
:101A90000000F87F0EF1020E2EF0030E5EF8046BCC
:101AA000364205D4012A43EB030515F5001F12D871
:101AB000012841EB010C1CF5001F0CD80ED14FEA98
:101AC000D17C15F5001F0CEB4C0C0CF1020C08BF7F
:101AD0004CEBD37C04E04FF0080C01E04FEAD37CE0
:101AE0000CEB4C0526FA05F606F00706B6F1040CD9
:101AF00006D20EEB860CBDE870404CF0010C60473E
:101B0000DFE80CF0090B02024FF000414FF000003B
:101B1000A1F5002170BD19461046012851EB0104C2
:101B200018BFD4F5001484BF002001F0004170BD3F
:101B30000808A0F500114FEA3101704790EA010F43
:101B400048BF81F0004100F12E82421A3CBF801A4A
:101B500089184FEAD0524FF07F4C1CEA410FA2EB9C
:101B6000D15318BF9CEA026F00F03B804FF0004C4D
:101B70004CEA00204CEA012121FA03FC10EB0C0C8A
:101B80001ED202F1FF325FEA1C2040EBC25038BF88
:101B900070471CF07F0F4FEA400C18BFBCF17F4F1D
:101BA00038BF7047C3F12003994008BF20F00100FF
:101BB000BCF17F4F38BF7047A0F1C04000F0DDB9E5
:101BC0004FEA3C00000A40EBC25028BF1CF0FF0F58
:101BD0004FEA400CE6D018BFBCF17F4F38BF7047CA
:101BE000EAE79CEA026F05D010EA5C0F08BF00F03C
:101BF0000040704710B500F07AF900BF64FBBE3EAC
:101C00004FF47F0C1CEAD0121EBF1CEAD11392EADB
:101C10000C0F93EA0C0F00F0858090EA010F48BF8B
:101C200042F4807240F4000C41F400002CF07F413B
:101C300020F07F4000B58142A2EB03020FF2081CA6
:101C4000ACEB504EC0F100009EF800E04FEA4E0EA3
:101C500000FB0EFC38BF49004FEA2C1C02F5FA02CB
:101C60000CFB0EF34FEACE1E4FEA112C4FEAC121B6
:101C70000EEB635E42EB22420EFB0CFC4FEA1C5360
:101C800000FB03114FEA112C4FEA01310EFB0CFC53
:101C90004FEADC4C00FB0C11C14228BF09184CEB89
:101CA00003335DF804EB10EB410143EBC250B2F596
:101CB0007C0F38BF704729D512F0F00F1CBF00F120
:101CC000C04000F000407047008182838485868791
:101CD00088898B8C8D8E8F919293959697999A9CEB
:101CE0009D9FA0A2A3A5A7A8AAACAEB0B2B3B5B75A
:101CF000B9BCBEC0C2C5C7C9CCCED1D4D7D9DCDF30
:101D0000E2E6E9ECF0F3F7FAFE0000004FEA400CDF
:101D10000CF1807CBCF17E4F28BF7047B0F1C04011
:101D200000F02BB990EA010F0CEAD11348BF42F43E
:101D30008072624538BF634507D213F47F0F16D017
:101D400080EA010000F00040704710B500F0CFF8C5
:101D5000097EFC3E00F005B880EA010000F000407A
:101D6000704780EA010000F0004000F006B912F46C
:101D70007F0F04BF0248704780EA010000F0FDB801
:101D80000000C07FC10DD1F19E0206DB4FEA0023A7
:101D900043F0004323FA02F07047004207D54FEAB0
:101DA0004001B1F1FE4F02D24FF00000704710B574
:101DB00000F09DF849922480002070476FEA2000CF
:101DC00070470000B0FA80F310FA03F2C3F19D03EC
:101DD0000AD0D90501EB1220530638BF704700F135
:101DE000010008BF20F00100704700004FF47F0C95
:101DF0001CEAD0121EBF1CEAD11392EA0C0F93EA20
:101E00000C0F00F0478090EA010F48BF42F4807247
:101E10004FF0004C4CEA00204CEA012102EB030297
:101E2000A0FB0113A2F50002002918BF43F0010333
:101E30005B0028BF4FEA330342EB22425FEA132CD8
:101E40004CEBC2502EBFBCEB436FB2F57C0F70471A
:101E50004FEA036CBCF1004F08BF20F00100B2F55F
:101E60007C0F38BF70470BD582F0FF0212F5803F20
:101E7000C8BF704700F1C040D8BF00F000407047B5
:101E800000F5000C5FEA4C0C48BF7047B0F1C04051
:101E900000F073B890EA010F0CEAD11348BF42F486
:101EA0008072624538BF634504D280EA010000F0C9
:101EB0000040704710B500F01AF800BF8900013EDD
:101EC00000F007B800F009B85FEA410C5FEA1C6C4B
:101ED00008D080EA010000F050B85FEA400C5FEAE9
:101EE0001C6CF6D14FF00040A0F5800070470EF159
:101EF000020E2EF0030E5EF8044B244204D44FEA87
:101F00004102B2F17F4F11D84FEA4003B3F17F4F46
:101F10000CD80ED14FEAD07CB2F17F4F0CEB4C0CB9
:101F20000CF1020C08BF4CEBD17C04E04FF0080C24
:101F300001E04FEAD17C0CEB4C0324FA03F404F0EB
:101F40000704B4F1040C06D20EEB840CBDE810407B
:101F50004CF0010C6047DFE80CF0070802024FF07C
:101F60000040A0F5800010BD0846420018BFD2F125
:101F7000807288BF00F0004010BDFF2141EAD050C0
:101F8000C005704780F0004090EA010F7FF5DDAD9D
:101F900081F0004100F007B890EA010F48BF81F0DE
:101FA00000413FF5D2AD421A04D882F00042A0EBC6
:101FB000020011444FEAD0524FF07F4C1CEA410F0F
:101FC000A2EBD15318BF9CEA026F4AD04FF0004CED
:101FD0004CEA00204CEA012121FA03FCB0EB0C0C86
:101FE0000FD412F0FE0F36D05FEA4C001DD5001260
:101FF00040EBC25038BF70471CF03F0F18BF70470E
:102000000BE0A2F101025FEA1C2040EBC25038BF96
:1020100070471CF07F0F18BF7047C3F12003994031
:1020200014BF401E20F00100704780084FEA1223C1
:1020300008BF7047B0FA80FCA2EB0C02CCF1280C70
:1020400060FA0CF093EA122F04BF00EBC250704705
:102050004FEAC3707047130A5FEADC1008BF70478D
:10206000F6E79CEA026F04D010EA5C0F08BF00207C
:10207000704710B5FFF73BFF40DFF63E81F00040B0
:1020800070470000A420000800000020200000008D
:102090006C010008C42000082000002098080000FF
:1020A000880100080000000000000000000000009F
:1020B0000000000000000000000000000000000020
:0420C000000000001C
:0400000508000131BD
:00000001FF
